:020000022000DC
:1070000000000420757302005D7302005F730200CC
:1070100061730200637302006573020000000000E8
:107020000000000000000000000000006773020084
:1070300069730200000000006B7302006D730200B0
:10704000919402006F730200BD9602006F730200FC
:107050006F7302006F730200419502006F730200AC
:107060006F7302006F7302006F7302006F73020090
:107070006F7302006F7302006F7302006F73020080
:107080006F730200B98602006F7302006F73020013
:107090006F7302006F730200ADBC02006F730200D9
:1070A0006F7302006F7302006F7302006F73020050
:1070B0006F7302006F730200000000000000000008
:1070C0006F7302006F7302006F7302006F73020030
:1070D0006F7302006F7302006F7302006F73020020
:1070E0006F7302006F7302006F73020000000000F4
:1070F000000000006F730200000000006F730200C8
:10710000000000000000000000000000000000007F
:10711000000000000000000000000000000000006F
:10712000000000000000000000000000000000005F
:10713000000000000000000000000000000000004F
:10714000000000000000000000000000000000003F
:10715000000000000000000000000000000000002F
:10716000000000000000000000000000000000001F
:10717000000000000000000000000000000000000F
:1071800000000000000000000000000000000000FF
:1071900000000000000000000000000000000000EF
:1071A00000000000000000000000000000000000DF
:1071B00000000000000000000000000000000000CF
:1071C00000000000000000000000000000000000BF
:1071D00000000000000000000000000000000000AF
:1071E000000000000000000000000000000000009F
:1071F000000000000000000000000000000000008F
:10720000354936480A1A02D0072291438D4634493F
:1072100034480A1A06D00722914381F309880222D2
:1072200082F3148830483149314A00F044F831483B
:107230003149324A00F03FF831483249324A00F0D1
:107240003AF832483249334A00F035F83248334987
:10725000334A00F030F833483349344A00F02BF811
:1072600033483449344A00F026F83448344900227F
:1072700000F02CF833483449002200F027F8334856
:107280003349091A082902DB002202604160314AB1
:1072900090471F481F49884205D00268043003B454
:1072A000904703BCF7E700208646EC46002000210B
:1072B000294A9047FEE7884207D0521A05D0037842
:1072C00001300B700131013AF9D17047884202D088
:1072D00002700130FAE770470000042000E003204C
:1072E000000004200000042024D80200E82A002026
:1072F000502B0020D0730200D0730200C0C80200DF
:1073000024D80200E82A0020E82A0020BCC9020094
:10731000BCC90200BCC90200BCC90200BCC9020051
:10732000BCC90200BCC90200BCC9020024D80200CA
:107330008CD80200502B0020502B0020502B002016
:10734000B43D0020B43D0020B43D0020B43D0020F9
:10735000B45D00209D7302006DA30200FEE7FEE70E
:10736000FEE7FEE7FEE7FEE7FEE7FEE7FEE7FEE7F5
:1073700000F002B8FFF7FCBF0F484FF00701884349
:1073800085460E4880470E48016841F4700101604F
:10739000BFF34F8FBFF36F8FFFF732BF09480A4922
:1073A0000A4A884207D0521A05D0037801300B7080
:1073B0000131013AF9D17047000004201190020018
:1073C00088ED00E0BCC90200E82A0020E82A00207D
:1073D0007047000007B5044B0093044A402300F0B7
:1073E00032F803B05DF804FBF1730200512B00206A
:1073F0002DE9F84388461446B2B10F4B0F4E0325D2
:10740000002743F00109224608EB0701002003F0A2
:107410002FF90744241A48B933782BB14FF47A4036
:10742000C847013D02D13570BDE8F88301233370B0
:10743000002CE8D1F8E700BFC0C90200502B0020A3
:10744000704703F045B9F0B595B01D46164608469D
:107450000C4601F0DFFC1A9B0D93CDE90865002571
:107460002B46082205A920460A958DF82C500C952C
:1074700001F0ECFC079B0293069B03939DF81430EC
:107480008DF8115003F00302012A1DD1BDF814201C
:10749000059DC3F3C203C2F383168DF81030B2000A
:1074A00008230EA9204601F0D1FCC5F3952508ABB1
:1074B0000093324602AB0EA9284600F033FB20466B
:1074C00001F0ACFC15B0F0BD022AF8D1BDF81650A1
:1074D000C3F3C203C5F389158DF810300827082DB2
:1074E0002E4628BF08263B4632460EA9204601F00C
:1074F000ADFCAD1B08AB02AA31460EA8374400F024
:1075000075FB002DEBD1DAE708B5FFF79AFF0448C9
:10751000042100F071FA034B01225A7108BD00BF2B
:10752000ACC90200E82A0020037813F0040216D048
:1075300003F00303012B03D0022B09D00120704775
:107540000A6800880232C0F3831002440A60F5E73B
:107550000B684288023303EB92130B60EEE7104690
:10756000704700002DE9F04FDFF81CA187B00F46EF
:1075700000230446861C0DF1070015468DF80730E0
:1075800000F02CFFDAF804203A60DAF8083003F54E
:1075900080739B1A0AF21C470AF583690AF21448A1
:1075A000B3421AD30020002D69D004F00F039B01D1
:1075B00043F0050363F30F00DAF80430DAB2033264
:1075C00033444AF822009DF80700CAF8043000F05E
:1075D00029FF012007B0BDE8F08F0121384601F0F6
:1075E00048F9484601F05DF9404601F05AF9DAF8E9
:1075F00008000290C0B203300AEB800002A9FFF736
:1076000093FF029B30BBDAB20AEB8202D16803918E
:107610009A1C0133DBB20AEB83030292D3F80CB05D
:1076200001F00303012B22D0022B15D083464046E4
:1076300001F03AF910B1029BCAF8083059463846B1
:1076400001F017F9DAF80830DAF8042003F580734E
:107650009B1AA5E7D8B2CEE7BDF80E30C3F3891365
:1076600003334FEA1B4B02EB93030293DFE7BDF8B2
:107670000C30C3F383134FEA1B4B1344F5E7A40507
:1076800044F0060098E700BF642C0020064B074832
:1076900010B500221A7001F076FB044610B90448B8
:1076A00001F01EFC204610BD642C002018C9020009
:1076B000FCC9020030B50A4C71B10A4A0A49121BD2
:1076C000D20800239A4201D1002030BD31F8235066
:1076D000854202D00133F5E7034654F83300F4E75E
:1076E0002CC90200ACC90200E82A0020094B01396C
:1076F00003EBC000032909D8DFE801F00A02040601
:107700000420704700797047407970470020704727
:10771000022070472CC9020070470000034BD3E9D8
:107720000130C31A58425841704700BF642C0020F2
:107730002DE9F04186B0FFF7F1FF0546002840F043
:10774000ED80774CC4F81804BFF34F8FA368029301
:10775000DBB2033304EB830002A9FFF7E5FE029BD3
:1077600018B1D4F81824002A5AD0DAB2991C01337F
:1077700004EB8202DBB204EB8303D268DB68049380
:1077800002F00303022B0392029154D1BDF80E3094
:107790006448C3F38917502F3E4628BF502606F190
:1077A000080166F38F13C1F30901ADF80E3001F043
:1077B00002FB0546002800F09C8001F02BFB002313
:1077C000082203A9284601F037FB0299CB43DBB21C
:1077D0000133C9B20331B6EB830F4FEA830204EBE6
:1077E000810125D95FFA82F80823A6EB080628460E
:1077F00001F022FBF6B208F108034B4903F0FC0349
:107800003246284601F018FB029B033703EB97072B
:107810000297D4F81834002B43D1D4F8106453E005
:1078200062689A4294D8A260284606B0BDE8F0810A
:1078300008233246E5E7012B5BD1BDF80C3039480F
:10784000C3F38311062928BF062161F3891302318E
:1078500001F00F018900ADF80C3001F0ACFA0546DB
:10786000002846D001F0D6FA0023082203A92846B2
:1078700001F0E2FA0026BDF80C20C2F38312B30037
:10788000964203F10803C4D202994A1CC9B20331DB
:10789000029204EB81010422284601F0CDFA013660
:1078A000E9E7284601F0BAFAFFF738FF80F0010057
:1078B000C5B2B9E7F3685B7923B1336829461B6821
:1078C00030469847F3681E68002EF3D1284601F031
:1078D000A5FA0DF107008DF8076000F07FFDD4F8E0
:1078E00018340BB9029BA3609DF8070000F09AFDC5
:1078F000DAE7D4F8104454B90C4B0D480D49C01ABE
:10790000C008000440F0020000F05EF8CCE72368F5
:1079100020469B689847E3681C68ECE7002583E7EE
:10792000642C002018C90200702C00202CC9020011
:1079300054C90200E4C902002DE9F34704460E468B
:10794000924601A9012218469946FFF70BFE1C4FEB
:1079500010B3019D4FF00008AA1CC84508EB0201B6
:1079600025D11848002100F055FF80F310000004D5
:1079700040EA1440E4006B1C04F03804DBB2EDB2C2
:1079800044F0010407EB8303033544EA881444EA16
:107990008624D86047F825403B781BB1FFF7C8FE26
:1079A0000028FBD1FFF7B8FE02B0BDE8F087C9B2EE
:1079B00007EB81015AF82830CB6008F10108CCE7C9
:1079C000642C00208030002000231A46FFF7B4BF4B
:1079D00007B50123019201AAFFF7AEFF03B05DF8DE
:1079E00004FB07B5CDE9002302236A46FFF7A4FF95
:1079F00003B05DF804FB000030B50F4CD4F8102440
:107A000003460020114631B9D96808714AB9C4F853
:107A100010340A6030BDC9680D79854206D0096806
:107A2000F1E7D26814680C601360F3E701300A28AC
:107A3000E8D14FF0FF30EDE7642C002038B5084B5B
:107A40000125D3F810441D7004B938BDE3685D7199
:107A5000236820465B689847E3681C68F4E700BF2A
:107A6000642C002030B5C38885B004460D4633B180
:107A7000144A00921449154A284600F078FF217AEA
:107A800005291DD0637A4BB1A088FFF72FFE104B5C
:107A9000104953F82020284600F069FF227A0E4B47
:107AA000A08853F8222003920021FFF703FE039AD7
:107AB0000A490346284605B0BDE8304000F057BFEC
:107AC00005B030BD28CA020010CA020008CA020070
:107AD00094CA02002DCA0200B8CA020030CA0200CD
:107AE00007B503460846197A052911D05B7A2BB1F0
:107AF000094A0A49019000F03AFF019808490190AB
:107B000000F035FF019803B05DF804EB00F024BFEE
:107B1000002AF8D0F2E700BF28CA02002DCA0200EE
:107B20002ED102002DE9F04385B01F460C9D0023A5
:107B300095F80C902B7306460C469046294638461D
:107B4000FFF790FFB8F1060F09D8DFE808F004123C
:107B5000181F283340003146284600F008FF002255
:107B600029463846FFF7BCFF85F80C9005B0BDE804
:107B7000F08322683146284600F0F9FEEFE7D4E9A9
:107B800000233146284600F0F2FEE8E7A3680093A0
:107B90003146D4E90023284600F0E9FEDFE7E36838
:107BA0000193A36800933146D4E90023284600F0EE
:107BB000DEFED4E723690293E3680193A368009390
:107BC0003146D4E90023284600F0D1FEC7E76369B7
:107BD000039323690293E3680193A36800933146FA
:107BE000D4E90023284600F0C2FEB8E708292DE9B1
:107BF000F74F80460E4617461C463CD8002593F8A2
:107C00000C901D7319461046FFF72CFFDFF888A073
:107C1000DFF888B0AE4231D918F805205946204621
:107C200000F0A5FE0135082DF4D11949194DDFF8F2
:107C300070A0204600F09BFE4FF0000B5E4522D95D
:107C400018F80B207E2A05D81046019204F034FA69
:107C5000019A00B92E225146204600F088FE0BF111
:107C6000010BBBF1080FE9D1012221463846FFF78D
:107C700037FF84F80C9003B0BDE8F08F51462046E2
:107C800000F075FECEE72946204600F070FEE6E7DC
:107C900044CA020042CA020040CA02003ACA0200B4
:107CA00046CA02001FB50021039001AA44F2010058
:107CB000CDE9011100F004F805B05DF804FB000007
:107CC00038B572B6FFF7BAFEFFF732FD0028FBD1D8
:107CD000104B114C114D1249E41AE408240444F0ED
:107CE0000100FFF771FED5F8F030DB0700D500BECC
:107CF0000C4944F00200FFF767FEBFF34F8FEA68BC
:107D0000094B02F4E0621343EB60BFF34F8F00BFF7
:107D1000FDE700BF2CC9020054C9020000ED00E0DD
:107D2000D7CA0200E3CA02000400FA0549B152B101
:107D3000531E1A4007D1826001608380C2601046E2
:107D400070470E2070470920704710B58468C268DC
:107D50008388121B934208D3C26813400268D1542F
:107D6000C3680133C360002010BD0420FCE78268B3
:107D7000C3689A420AD08268838813400268D35C41
:107D80000B708368013383600020704705207047C3
:107D900010B5D0E90243D1E90202A04272EB03031D
:107DA0002CBF0120002010BD08B50A4800F06DFC72
:107DB000094AD2E90031C018084BD3E9002341F148
:107DC0000001904271EB030303D210F1807041F186
:107DD000000108BDF02A0020203100209831002049
:107DE00037B505460C460A4801A900F082FC60B18F
:107DF0000570446001A9064800F0A5FC18B10548CB
:107E000000F048FC002003B030BD0420FBE700BFB9
:107E100084310020F02A0020294B73B51E780446D7
:107E20001EB90026304602B070BD0028F9D0FFF719
:107E3000BBFFD4E902239042994139D300230DF1CD
:107E400007008DF8073000F0C9FA23692BB94FF00D
:107E5000FF324FF0FF33C4E902239DF8070000F022
:107E6000E1FAD4E90530984700250DF107008DF8B7
:107E7000075000F0B3FA2369C3B1D4E90212B2F19A
:107E8000FF3F08BFB1F1FF3F05D05B1842F1000290
:107E9000C4E9023235469DF8070000F0C3FA002D10
:107EA000BFD00848214601F03AF8BBE71D46F2E78B
:107EB000B3F1FF3F08BFB2F1FF3FB2D0F1E700BF1F
:107EC0002831002000CB020013B5114B114918686E
:107ED000019008231048582200F0F8FB044698B996
:107EE0000E4A0F4801A900F0C1FA044660B90C48D7
:107EF000012100F0ADFB01230A4A0948194600F0B0
:107F00000FFB094B01221A70204602B010BD00BFC2
:107F1000FACA02002C3100208431002009800200BE
:107F2000F02A0020FFFF7F002831002030B56AB121
:107F300003684FF0FF344FF0FF355A614A1E51423B
:107F4000C3E9024551411961002030BD0720FCE71B
:107F5000F7B5044600250DF1070017460E468DF8CB
:107F6000075000F03BFAD4E90223B3F1FF3F08BF0A
:107F7000B2F1FF3F07D1FFF717FF301841F10001C1
:107F8000C4E9020101259DF8070000F04BFA55B144
:107F90002369A76103B126612146002003B0BDE833
:107FA000F040FFF71DBF284603B0F0BD37B50546CA
:107FB00000240DF107008DF8074000F00FFAD5E915
:107FC0000223B3F1FF3F08BFB2F1FF3F1FBF4FF0E5
:107FD000FF324FF0FF33C5E9022301249DF807006B
:107FE00000F020FA34B12946012003B0BDE830404A
:107FF000FFF7F6BE204603B030BD0000014800F098
:1080000044BB00BFF02A00202DE9F743064600F0EC
:1080100027FB40B1624AD2E9003113F1807341F18C
:108020000001C2E900310021304600F028FB38B1E0
:108030005C4C236823B12068FFF7EEFE0023236029
:108040000121304600F01BFB20B1FFF7ADFE564B7F
:10805000C3E900015548534C01A900F084FB4FF0DF
:10806000FF384FF0FF39A0B9DFF844814D4D40464D
:1080700000F06BFF002800F08580D0E90223B3F107
:10808000FF3F08BFB2F1FF3F32D1404600F057FF3B
:10809000EDE70378012B20D0022B08D1444D284670
:1080A00000F04DFF002877D0C0E90289F7E75BB9FF
:1080B0004168D1E90223B3F1FF3F08BFB2F1FF3FAE
:1080C00002D03B4800F02BFF01A9384800F076FBB6
:1080D00001A9364800F047FBC5E74168236899428B
:1080E00002D100232360EFE7314800F031FFEBE7D6
:1080F000296891B12968D1E9020182428B412FD2CE
:108100002B68D3E90223B3F1FF3F08BFB2F1FF3F71
:1081100003D02968404600F002FF404600F00FFF00
:10812000D0E902490746FFF73FFE201A69EB010933
:10813000012879F1000318DBB0F5350F13D3FFF7F1
:108140005DFF1C4A02441C484FF49603002100F0D6
:1081500007FA90B92B6813B9304600F0D9F92F60AF
:1081600003B0BDE8F0832246EDE71348002100F09C
:108170007CFA3846FFF750FE01E00D28F9D00023C5
:108180002B6074E7074B1B68002BE9D1304603B026
:10819000BDE8F04300F0C0B9084B01221A7093E724
:1081A00020310020A03100209831002084310020AF
:1081B00000CB0200FFFFB400F02A0020283100208D
:1081C0000648074A03780749D35C012213B10430FB
:1081D00001F00ABF0C3001F0B3BC00BFF82A002048
:1081E0001C320020CC3100200648074A037807499A
:1081F000D35C012213B1043001F0A8BE0C3001F0B1
:108200004FBC00BFF82A00201C320020CD310020D6
:1082100037B50578012D0DD0022D30D075B91F4925
:108220001F48FFF7A4FD002834D103B0BDE830405B
:10823000FFF7DABF037A1BB9FFF7C2FF03B030BD07
:108240004368184C19782046FFF77FFD80B18DF800
:1082500000500190144B68461B689847A168E3687A
:10826000A2885B1A9A42E7D2104B01221A70E5E706
:10827000A268E3689A42F1D08DF80000EAE7C3688B
:108280008DF800500193FFF79BFF074B68461B6872
:108290009847D3E703238DF80030F6E7CD3100206F
:1082A000BC310020A8310020A4310020B8310020CA
:1082B000F0B51F46234B89B004461A600D460029CD
:1082C0003DD08A8820480968FFF730FD002834D166
:1082D000AA89A9681D48FFF729FD00282DD11C4E49
:1082E0000FCE6D460FC596E80F0085E80F00636955
:1082F0000693237C174A18488DF81C70003B18BF62
:1083000001238DF81430637C002B14BF0E2300234F
:108310008DF81530E3680293A368039323680193F3
:1083200069466368009301F03BF830B90B4B187055
:108330002368013301D0FFF743FF09B0F0BD0720E8
:10834000FBE700BFA4310020A8310020BC31002091
:108350000CCB020011820200F82A0020B831002064
:1083600070B5084D014608482E78FFF700FD044619
:1083700036B100232B70FFF723FF08B1FFF792FC03
:10838000204670BDB8310020A831002010B501464C
:108390000E48FFF7DAFC0446A8B90D480D4A0378E9
:1083A000D35C63B1043001F0C5FD60B90A490748E8
:1083B000FFF7DDFC38B9BDE81040FFF715BF0C3002
:1083C00001F062FBF1E7204610BD00BFBC31002088
:1083D000F82A00201C320020CD31002070B5EFF3C8
:1083E000108672B60C4A946801239CB993600B4BBB
:1083F0000B4DD3F8801029401160C3F88050D3F89A
:10840000841051604FF0FF32C3F88420047006B925
:1084100062B670BD0370FAE7D031002000E100E0E1
:10842000FC06FFBD084B9A6810B55AB150B9EFF37E
:10843000108172B6054A1C6814605C6854609860CC
:1084400001B962B610BD00BFD031002000E100E0EC
:10845000435882B03BB10023435043580193019BE2
:10846000012002B070471846FBE70000F8B5204B2A
:108470004479204E43F824201F4A204B06EBC404C5
:108480009B1A2279DB081B0432B143F002001C491D
:10849000FFF79AFA0820F8BD02680C88C2F8084570
:1084A00090F904508A7804795201002DD2B219DB78
:1084B00014494F1987F8002301226D0904F01F04A5
:1084C00002FA04F441F82540427906EBC201012486
:1084D00046F832000C7143F003000B49FFF774FAC1
:1084E0000020D8E7094904F00F040A55ECE700BF63
:1084F000E4310020DC3100202CC9020064C90200F4
:108500002CCB020000E100E04ECB020014ED00E0B5
:10851000036801221A607047036801225A6070479D
:1085200073B501F15005AD000068ADB24FF4803471
:108530008C400026C0F80843C0F84843465101F576
:10854000A8714559019522F07F42019D40F82120F4
:10855000C0F844430BB1C0F8044302B070BD000042
:108560002DE9F74F0D4622F07F4402684FF4803723
:1085700005F150068F408046B60002EB8500C2F838
:108580004873B6B2C2F80873D2F8041599464FF092
:10859000000BD0F84035C0F8401542F806B05B1A21
:1085A0009259009223F07F43012B009A4FEA850AEB
:1085B0000CD1264B4FF4806043F001039847D8F864
:1085C000003043F806B09B590193019BD8F8001086
:1085D000D1F80465C1F84473A31B23F07F43012B3A
:1085E0001CD11A4B05F5A875013443F0010341F87D
:1085F00025404FF480609847D8F80030D3F8043510
:108600009E4209D1D8F800300020C3F84473C3F863
:10861000047303B0BDE8F08F0D20FAE78A44C9F176
:10862000FF13CAF84045D1F80405221A013A22F096
:108630007F4203F57F439342EED3002AE2D1013417
:10864000CAF84045D1F804359842DAE760CB020019
:1086500003680222C3F8442309B1C3F80423704716
:1086600000684FF48271FFF7F3BE4FF4803303FAD2
:1086700001F10368C3F84813C3F808137047503179
:108680008900006889B2FFF7E3BE0368D3F80405E8
:108690007047000090F90430002B09DB5A090121D2
:1086A00003F01F0301FA03F34032024941F822307C
:1086B000704700BF00E100E0024B034A1B681068EE
:1086C000184700BFE4310020DC31002010B561B153
:1086D000B2FBF3F403FB1424A4B244B9C0E90014C0
:1086E00084608281C381204610BD0E20FCE70920F2
:1086F000FAE737B550E8013F9DB2C4892544848923
:10870000A54228BF2D1B0489A54202BFBFF32F8FAE
:10871000002207E0C5EA030540E80154002CE9D136
:108720004FF001028DF803200193019A0A609DF831
:10873000031001F0FF0321B1006810FA82F003B0CA
:1087400030BD1846FBE70A884B889A4209D150E8A9
:10875000012FC2EA024240E80123002BF7D1012099
:1087600070470020704737B550E8023F1FFAA3F565
:10877000C488A54202BFBFF32F8F00220DE0C48939
:1087800025448489A54228BF2D1BC3EA054540E83E
:108790000254002CE8D14FF001028DF80320019320
:1087A000019A0A609DF8031001F0FF0321B10068EF
:1087B00000EB124003B030BD1846FBE70A884B8837
:1087C0009A4209D150E8022FC2EA224240E802232D
:1087D000002BF7D1012070470020704701F01F02E5
:1087E0004B090121914000EB830000F01EB801F01D
:1087F0001F0301229A404B0900EB8300D14300F094
:108800002CB84B0901F01F0150F82300C84000F0BC
:108810000100704710B5034653E8000F0A4643E8CD
:10882000002494F0000FF7D110BD10B5034653E8B3
:10883000002F42EA010043E8000494F0000FF6D153
:1088400010BD10B5034653E8000F00EA010243E8EB
:10885000002494F0000FF6D110BD10B5034653E884
:10886000002F02EA010043E8000494F0000FF6D163
:1088700010BD10B5034653E8002F02EB010043E89A
:10888000000494F0000FF6D110BD10B5034653E874
:10889000002FA2EB010043E8000494F0000FF6D192
:1088A00010BD0121FFF7C1BF0021FFF7CABF10B5FE
:1088B00090B1D0E9012301689B1ADBB20A60013B49
:1088C000DBB2FF2B026802D10020107110BD1168CD
:1088D0004C1C14600B70F2E70E20F7E737B5054625
:1088E00000240DF107008DF80740FFF777FD2A6897
:1088F0006B68116899420ED9481E106011F8013C4E
:10890000EC68298A01FB0344AB6811791B1ADBB2BE
:10891000994238BF13719DF80700FFF783FD204689
:1089200003B030BD37B5054600230DF107000C46F6
:108930008DF80730FFF752FD2A681368591C116043
:10894000E968641A298AB4FBF1F41C709DF80700E9
:10895000FFF768FD03B030BD826810B504462AB148
:1089600043690168006998470023A36010BD0EB4F5
:1089700003B5039921B104AB01AA019300F076F885
:1089800002B05DF804EB03B070470A2938B504461D
:108990000D4602D10D21FFF7F8FFA3682268591C8C
:1089A000A160D554D4E901329A4204D32046BDE8EF
:1089B0003840FFF7D1BF38BD2DE9F84F9846DDE9C3
:1089C0000A43154682460F460A464FF00109AA425D
:1089D0000FD2C14538BFC14613F0010B01D16CB9AC
:1089E00000240126B8F1010F1BD908F1FF386E43AE
:1089F000F8E709F10109B2FBF5F2E8E79B070ED5AC
:108A0000B8F1000F0CBF30262026A145E9D2013C69
:108A100031465046FFF7B9FF002CF6D1E0E720269B
:108A2000F3E7B7FBF6F39D42E1D9DFF83C80B7FBF3
:108A3000F6F3504618F8031006FB1377FFF7A5FF6F
:108A40003346AB42B6FBF5F6F1D2BBF1000F02D0D4
:108A50000CB1A14501D3BDE8F88F20215046013C5F
:108A6000FFF793FFF4E700BF66CB02002DE9F74F55
:108A7000054617468846002900F03E8118F8011B7C
:108A800049B92B7B002B00F03781284603B0BDE8A5
:108A9000F04FFFF761BF252940F0B780002698F816
:108AA00000302D2B424608F1010823D0302B24D072
:108AB0002B2B25D000242A2B02F1010123D13B6866
:108AC0001A1D1B683A601C440A4613782E2B26D1C7
:108AD00001324FF0000A104610F8011BA1F1300CD2
:108AE000BCF1090F1DD80A2303FB0A13A3F1300AB6
:108AF0000246F0E746F00106D1E746F00206CEE76F
:108B000046F00406CBE711F8013CA3F13000092838
:108B1000DBD80A2202FB0434303C0A46CBE74FF094
:108B2000000A12F8011B01F0FB0068289046F8D0FB
:108B3000782909D86F290CD8632962D022D8252931
:108B400063D0582900F0888098F80030002B95D128
:108B500097E770390829F7D801A353F821F000BF2F
:108B6000D38C0200498B0200498B0200698C020001
:108B7000498B0200478C0200498B0200498B02009E
:108B8000598C0200642901D06929DDD13A68D2F8F4
:108B90000090111D89EAE9723960A2EBE9724FF089
:108BA000010B092A35DCD34538BFD3462CB1B9F1C6
:108BB000000F01DB720700D5013CB30702D5BAF103
:108BC000000F03D0F00701D44CBB0024B9F1000F13
:108BD0002DDAC9F100092D212846FFF7D6FE06F04F
:108BE0000302022A04D1BAF1000F01D11CBB0024F8
:108BF000CDE9004653460A2249462846FFF7DCFEE7
:108C0000A2E73B681A1D19783A602846FFF7BDFEB7
:108C10009AE70A230BF1010BB2FBF3F2C1E7A3457C
:108C2000D4D220212846013CFFF7AFFECCE77107E4
:108C3000D5D52B21D0E7A345DAD230212846013CF7
:108C4000FFF7A3FED2E73968CDE900460A1D3A6076
:108C500053460A220968D0E739680A1D3A60CDE90F
:108C6000004653461022F5E73B681A1D3A6016F09D
:108C70000106D3F8009024D1B9F1000F03D0484683
:108C800003F0CFFA0646B4421DD809F1FF3919F8AE
:108C9000011F00293FF458AF2846FFF776FEF6E79C
:108CA00028460136FFF771FE19F806100029F7D1A2
:108CB000A642BFF449AF20212846013CFFF765FEDC
:108CC000F6E70026F0E720212846013CFFF75DFE8D
:108CD000D9E73B681A1D3A60302128461C68FFF727
:108CE00054FE78212846FFF750FE00220823CDE9E4
:108CF00000322146102280E703B0BDE8F08F00BFAC
:108D00002DE9F84FB0F806A04579D2F800B09DF8EB
:108D100028900AFB05F5043D88460BEB0301A942A8
:108D200003F1040488BFA5EB030BB4FBFAF6074676
:108D30000AFB1644C2F800B04EB9AAEB04055D4523
:108D400028BF5D46BBF1000F04D1BDE8F88F3F6836
:108D5000013EF1E7043408EB06003C442A46B9F131
:108D6000000F0DD02146ABEB050B03F0DCF9DA4523
:108D70002E443F6855464FF0000428BF5D46E1E7AA
:108D800001462046EFE7FFF792BDF8B54679014668
:108D9000721E0546002393422D6803D30024A64289
:108DA00002D8F8BD0133F6E70F682846FFF7BAFD91
:108DB00001343946F3E72DE9F843068ACD1C07460E
:108DC000FFF78CFD043E35440446B5FBF6F5F0B1E3
:108DD0004FF48073EDB28380C680013D0760814609
:108DE0004FF00008A84512D23846FFF777FD064637
:108DF00048B163790133637108F10108C9F80000D3
:108E000007608146EEE72046FFF7BFFF3446204665
:108E1000BDE8F88301210430FFF72BBD10B5012117
:108E200004460430FFF731FDC0B220B92046BDE84A
:108E30001040FFF7AABF10BD1FB503920022009299
:108E400003AAFFF75DFF05B05DF804FB1FB50392B1
:108E50000122009203AAFFF753FF05B05DF804FB5F
:108E600041DF7047064B10B500241C70054B1C6099
:108E7000BFF35F8F0449054800F03BF8204610BD62
:108E8000F0310020F431002080CB0200E8310020D6
:108E900007B500230DF107008DF80730FFF79EFAA4
:108EA000F1EE103A23F09F03E1EE103ABFF35F8F2B
:108EB0000A4B4022C3F884219DF80700FFF7B2FA5D
:108EC00002F0DAFE20B103B05DF804EBFFF7C8BF93
:108ED00020BF40BF20BF03B05DF804FB00E100E00D
:108EE000836800225A60C3E904229A60DA601A603B
:108EF00070470B684A684360934208BF00230160D3
:108F000008BF43607047436843B102689168526884
:108F10000B449342436004BF00234360704770B525
:108F2000446806460D46206818B1B368294698473C
:108F300018B923682B60256070BD2468F3E7436887
:108F4000186808B102681A6070474368186870476B
:108F50004368186800B97047884203D102681A60F4
:108F60000120704703460068F4E7000010B50D4982
:108F7000A1F59472914201D800200FE08C1AE30F02
:108F800003EBE4035B1002EBC30452F8333083427B
:108F900005D802D204F10802ECE7606810BD214652
:108FA000E8E700BF8CD0020008B5FFF7DFFF024BF7
:108FB000002808BF184608BD4FCF020010B5044670
:108FC000C0B2FFF7E3F9204610BD4FF08053D3F84D
:108FD0003001A0F108035842584170474FF08053C8
:108FE000D3F83021082A06D1D3F83431052B02D822
:108FF000024AD05C70470020704700BF92D0020048
:10900000024AD2F80034002BFBD0704700E0014048
:1090100010B5FFF7DAFF40B14FF080430022C3F8EC
:109020000C21C3F81021C3F83825FFF7CEFF002824
:1090300046D04FF08052654BD2F80414C3F8201587
:10904000D2F80814C3F82415D2F80C14C3F8281564
:10905000D2F81014C3F82C15D2F81414C3F8301534
:10906000D2F81814C3F83415D2F81C14C3F84015FC
:10907000D2F82014C3F84415D2F82414C3F84815C4
:10908000D2F82814C3F84C15D2F82C14C3F8501594
:10909000D2F83014C3F85415D2F83414C3F860155C
:1090A000D2F83814C3F86415D2F83C14C3F8681524
:1090B000D2F84014C3F86C15D2F84424C3F87025D4
:1090C000FFF78CFF18B1424B424AC3F88C26FFF7DA
:1090D00085FF18B1404BFB22C3F81825FFF77EFF30
:1090E00070B14FF080414FF08053D1F8E42ED3F8A7
:1090F000583222F00F0203F00F031343C1F8E43E8D
:10910000FFF76CFF20B1354B4FF40072C3F84026D7
:10911000FFF75BFF48B14FF08043D3F80024D2073C
:1091200044BF6FF00102C3F800242D4AD2F8883002
:1091300043F47003C2F88830BFF34F8FBFF36F8FD3
:109140004FF08053D3F83021082A0ED1D3F83431B0
:10915000052B02D8234AD35C3BB14FF01023D3F840
:1091600008224FF08043C3F858254FF01023D3F85E
:109170000022002A03DBD3F80432002B22DA1A493A
:1091800001234FF01020C1F804351224FFF738FFF7
:10919000C0F80042FFF734FFC0F80442FFF730FF89
:1091A0000023C1F80435FFF72BFFBFF34F8F0C49A5
:1091B0000E4BCA6802F4E0621343CB60BFF34F8FDB
:1091C00000BFFDE70A4B0B4A1A6010BD00C000400B
:1091D000005000404881030000F000400090024031
:1091E00000ED00E08CD0020000E001400400FA0530
:1091F0000C2B00200090D00338B5074C051E04F15D
:10920000080318BF1C4623682BB11A6822605B68EC
:1092100028469847F7E738BD0032002020B9054BB3
:1092200001225A70FFF7E8BF012802D1014A90706D
:10923000F8E77047F831002020B9034B01225A703B
:10924000FFF7DABF704700BFF831002038B50E4C89
:109250002378B3B90D486360A3602361E36000F035
:10926000E7F8054602F008FD08B900F0EDF8012323
:109270002370074BD3F800340BB10123A3702846A9
:1092800038BD8525F5E700BFF83100201D920200AA
:109290000000014037B50D4C00230DF107008DF89B
:1092A0000730FFF79BF8E368013BE360E36833B9FD
:1092B000074BD3F8005415B900F0D8F8A5709DF805
:1092C0000700FFF7AFF803B030BD00BFF831002052
:1092D00000000140012813B50CD0032820D038B974
:1092E000134B0122C3F88020BFF34F8FBFF36F8F62
:1092F00002B010BD0F4C00230DF107008DF80730B0
:10930000FFF76CF823780BB9FFF7A0FFE3689DF82F
:1093100007000133E3600123A370FFF783F8E7E759
:1093200000F092F802B0BDE81040FFF7B3BF00BFF5
:1093300000E100E0F83100201FB503788DF800301F
:109340004368019383688DF80830C368054A039326
:10935000054B684653F8213052F82110984705B064
:109360005DF804FB0C320020143200201FB5037896
:109370008DF800304368019383688DF80830C36826
:10938000054A0393054B684653F8213052F82110E3
:10939000984705B05DF804FB0C3200201432002021
:1093A000F0B5194B90F800C0DFF86CE043F82C20C2
:1093B000164B16460A6943F82C204B7F0EF80C30EA
:1093C0000C4607460FCC89B06D460FC594E80F00D8
:1093D00085E80F003B78CDF810C01EF803304BB184
:1093E000002E0B4A694608BF3246381D00F0C6FC05
:1093F00009B0F0BD002E074A694608BF324607F1A2
:109400000C0000F071FAF3E7143200200C32002057
:10941000399302006D9302001C32002000F180405D
:10942000002382B0036003680193019B02B0704780
:10943000044A137923B901211060918018467047BE
:109440008520704720320020074B1A68D20704D4C9
:10945000C02283F8002301221A604FF080430122CA
:10946000C3F81825704700BF00E100E04FF08042CC
:1094700008B50223C2F808334FF48270FFF7CEFF1D
:109480000123D360D2F81834DB03FBD408BD0000FD
:109490004FF0804110B5D1F8003163B14FF48070C6
:1094A000FFF7BCFF0D4B58790122C1F8082310B912
:1094B0005A711B6898474FF08042D2F8043163B16B
:1094C0004FF48270FFF7AAFF0223C2F80833034B60
:1094D000BDE810401B680120184710BD2032002055
:1094E00000F1804000F5C040002382B003600368B3
:1094F0000193019B02B0704703681F2B83BF03F0E9
:109500001F03036001484FF0A04070470003005064
:1095100007B5019001A8FFF7EFFF019B00EB830067
:10952000D0F8003723F44033C0F80037D0F80037C4
:1095300043EA0141C0F8001703B05DF804FB0000E6
:109540002DE9FF470024CDE90244584D4FF48072C5
:10955000012102F1804303F5C04390B21B68012B47
:1095600006D1D5F804330B4202D0FFF7B9FF0C4304
:109570000432B2F5907F4FEA4101EAD14B4BD3F868
:109580007C31012B11D14FF4BE70FFF7A9FF4FF0D2
:10959000A04344F00044D3F820250292C3F82025CC
:1095A000D3F820280392C3F82028E3B2D3B1404F68
:1095B00000250126344210D0AB0003F1804303F5AF
:1095C000C043D3F81005D3F8101557F8253023B150
:1095D000C1F30141C0F3052098470135082D4FEA3A
:1095E0004606E7D1002C59DA314D324C324E4FF05D
:1095F0000008012716F9013B5A1C3CD0C3F3C201F5
:1096000004A801445FFA83F911F8081C03F03F0233
:1096100003F0070307FA03F319422CD001A80192C3
:10962000FFF76AFF019B03F5E07350F82330C3F3A3
:10963000014ABAF1020F0CBF032102211046FFF7C5
:1096400067FF01A80192FFF757FF019B07FA03F399
:10965000C0F82035AB1893F9303055F8233053B1AA
:109660004FEA9911032904D0BAF1020F19D1012947
:1096700001D11046984708F10108B8F1040FB9D19B
:109680004FF0A043D3F820250292C3F82025D4F848
:1096900020350393C4F820351343A7D104B0BDE8A7
:1096A000F087BAF1030FE6D10229E1E7006000403C
:1096B000283200200003005088320020014B1B6834
:1096C000184700BF943200200E4B984237B50C4625
:1096D00002D0002003B030BD00230DF107008DF84B
:1096E0000730FEF77BFE084B1D7915B901221C607F
:1096F0001A719DF80700FEF795FE002DE9D01120A4
:10970000E8E700BF002000409432002000234350CF
:1097100082B043580193019B02B070470A4610B5CE
:109720004FF48E71FFF7F2FF136A9168C95C136AF8
:1097300001331362C0F81C1510BD024608B500685D
:109740004FF49271FFF7E2FF10684FF48471FFF756
:10975000DDFF136801221A6008BD8B690A4610B547
:109760004FF4847123B9FFF7D1FFD0F8183510BD3D
:10977000FFF7CCFF536AD168D0F81805C854536A74
:1097800001335362F3E700001FB501238DF8003069
:10979000044BCDE90110D3E900126846904705B0AB
:1097A0005DF804FB9C32002030B54D4DD5F80433F4
:1097B0009A0585B051D5D5F82431002B4DD04FF402
:1097C00092712846FFF7A2FF4FF40173C5F80833E2
:1097D000444B93F829200AB901226A6040490222C9
:1097E0008DF80020D1F88024C1F8802403929A6972
:1097F0000292DA6801920022C3E906226846D3E9A0
:10980000001290473648D0F81C315BB1354A516997
:10981000136A99424DD992F82830002B49D111464C
:10982000FFF77CFF2E48D0F84431002B56D04FF480
:10983000A271FFF76BFF2B4B93F829200AB101228D
:1098400002609A69002A49D0586AD96800229A6150
:1098500005B0BDE83040FFF797BFD5F804335B078C
:10986000D0D5D5F80831002BCCD01E4C1C48214651
:10987000FFF773FF636AA2699A42C3D1E369E168A3
:109880004BB1A3612369E3600023606AE361636213
:10989000FFF77AFFB6E794F829300BB901236B6024
:1098A0000F4B4FF40172C3F808230023606AA361D1
:1098B000EEE70B484FF48E71FFF728FF5369002B3A
:1098C000B0D051690291002391688DF80030019168
:1098D00053616846D2E900139847A3E705B030BD4D
:1098E000002000409C3200202DE9F843604D90F8A4
:1098F00004802C2303FB0853064693F82A300C46B9
:109900009146002B40F0AF805A490068FFF7DCFE1B
:109910000746002840F0A9802268531C10D01F2A57
:1099200087BF554902F01F0313464FF0A0410120A5
:10993000984003F5E073C1F80805032041F82300BF
:109940006168481C0DD01F298BBF01F01F030B4617
:1099500049484FF0A04003F5E0734FF0000C40F889
:1099600023C03068A369C0F8243594F814C0637D1F
:10997000BCF1010F4CEA0303C0F86C35C0F81415B4
:10998000C0F80C252BD1A368591C0DD01F2B8BBF01
:1099900003F01F021A4638494FF0A04102F5E07269
:1099A0004FF0000C41F822C0E1684A1C13D01F2977
:1099B00087BF314A01F01F0C8C464FF0A0424FF098
:1099C000010E0EFA0CFE0CF5E07CC2F808E54FF033
:1099D000030E42F82CE0C0F80815C0F810352C2210
:1099E00002FB08F2AB18C3F804902369AB50B9F13D
:1099F000000F20D04FF48E71247FFFF787FE4FF4C5
:109A0000A2713068FFF782FE32681C4BC2F8043343
:109A1000130B42F307326101002AC9B21EDB18485A
:109A2000841884F800130121520903F01F0301FA7E
:109A300003F340F8223033680422C3F800252C23B6
:109A400003FB08530022C3E9062283F829205A6148
:109A5000012283F82A203846BDE8F883094A03F03A
:109A60000F03D154E7E70827F5E71127F3E700BF15
:109A70009C320020A99702000003005080000200E1
:109A800000E100E014ED00E00279044B2C2101FB21
:109A900002335869003818BF012070479C320020FB
:109AA0002DE9F84F064690F8048089469246FFF764
:109AB000EBFF044600283CD1204F2C2508FB057BFA
:109AC0004FF48E71CBF814A0CBF80890CBF820009F
:109AD0008BF828003068FFF719FE30680123836097
:109AE0005946FFF71BFEDBF804305D461BBB3068B0
:109AF000DBF814402B6A9C4211D83368D3F81C2140
:109B0000002AFBD00122DA6000202C2303FB087717
:109B100000237B61BDE8F88F95F828303BB9D0F879
:109B20001C31002BF8D05946FFF7F8FDE2E70F2073
:109B3000EBE71120EEE72046ECE700BF9C32002067
:109B40002DE9F0473A4D07792C2303FB07530646CE
:109B50005C6824B103684FF40170C3F808032C2338
:109B600003FB0753986950B1D869002841D024B14C
:109B700033684FF40172C3F80423112436E09A616C
:109B8000D9605862D8612C2303FB075393F829301E
:109B90001BB910B93046FFF7D0FD4FF02C0808FB79
:109BA000075A3068DAF80430002B37D14FF4A2712D
:109BB000D046FFF7ABFD3068D0F82491D0F80831DB
:109BC000D0F84441CBB914B9B9F1000FF3D02C232C
:109BD00003FB07550023AB61B9F1000F24D12CBB67
:109BE00095F8291033680122B1B11A602046BDE80A
:109BF000F0871961DA610120C5E7B9F1000FE6D1FC
:109C0000002CE4D14146FFF7A8FDDAF82430DAF859
:109C100018209A42CFD8DAE75A60E7E74FF4017389
:109C2000C0F804330024E1E70324DFE70F24DDE775
:109C30009C3200200023435082B043580193019B83
:109C400002B070471FB501238DF80030044BCDE9F9
:109C50000110D3E900126846904705B05DF804FB97
:109C6000C83200207FB5434AD2F82461002E60D06C
:109C700010464FF49271FFF7DDFF02238DF800309C
:109C8000D2F88034C2F880340393D2F83C35029382
:109C9000394BDA6801920022C3E906226846D3E90B
:109CA000001290473348D0F8443173B14FF4A27199
:109CB000FFF7C0FF304B9A693AB10022C3E9062290
:109CC000D968D0F83C05FFF7BDFF2A48D0F820310D
:109CD000ABB14FF49071FFF7ADFF0123C360264B8A
:109CE0005A6962B1D0F84C150291002299688DF83A
:109CF000002001915A616846D3E9001290471D483F
:109D0000D0F858319BB14FF4AC71FFF793FF1A4B69
:109D10005A6962B1D0F84C150291002299688DF809
:109D2000002001915A616846D3E90012904704B0BF
:109D300070BDD2F81031002BB4D04FF488711046AA
:109D4000FFF778FF0C4BD2F83C0599698842A9D1FE
:109D5000DC69D96864B1D2F8005225F02005C2F858
:109D600000521A699C61DA60DE61FFF76BFF99E7C8
:109D70009C61FAE700200040C83200202DE9F8433A
:109D8000664E90F80480242303FB0863044693F88E
:109D900020300D469146002B40F0BC8060490068A1
:109DA000FFF792FC0746002840F0B68029684B1C5C
:109DB00010D01F2987BF5B4A01F01F030B464FF0ED
:109DC000A0420120984003F5E073C2F80805032083
:109DD00042F823006A68501C0DD01F2A8BBF02F086
:109DE0001F0313464F484FF0A04003F5E0734FF0B8
:109DF000000C40F823C02068AB69C0F8243595F802
:109E000014C06B7DBCF1010F4CEA0303C0F86C3544
:109E1000C0F80C15C0F814252BD1AB68591C0DD017
:109E20001F2B8BBF03F01F021A463E494FF0A04183
:109E300002F5E0724FF0000C41F822C0E9684A1CBC
:109E400013D01F2987BF374A01F01F0C8C464FF0F3
:109E5000A0424FF0010E0EFA0CFE0CF5E07CC2F8A9
:109E600008E54FF0030E42F82CE0C0F80815C0F8E2
:109E70001035242202FB08F2B318C3F804902B69B2
:109E8000B350B9F1000F2FD04FF488712A7FFFF73C
:109E9000D1FE20684FF49071FFF7CCFE20684FF49C
:109EA0009271FFF7C7FE20684FF4A271FFF7C2FE60
:109EB0004FF4AC712068FFF7BDFE23681A49C3F860
:109EC0000413190B43F307335201002BD2B21CDBEE
:109ED0001648C51885F8002301225B0901F01F010F
:109EE00002FA01F140F8231023680822C3F8002584
:109EF000242303FB08660023C6E9063373610123AC
:109F000086F820303846BDE8F883094B01F00F0190
:109F10005A54E9E70827F5E71127F3E7C83200208C
:109F2000659C0200000300501003420000E100E0C5
:109F300014ED00E00279044B242101FB023358693F
:109F4000003818BF01207047C832002001F060437C
:109F5000B3F1005F2DE9F0470646884692463BD1B3
:109F600090F80490FFF7E6FF0446002836D11D4F15
:109F70003068242505FB09754FF49071C5F814A0CD
:109F8000C5F80880FFF756FE4FF4AC713068FFF754
:109F900051FE33686A69A968C3F84415C3F84825B7
:109FA00001229A606A68DAB9D3F82021D3F85801FF
:109FB0001AB90028F8D00F2007E00028FBD10122B1
:109FC000DA60D3F85821002AFBD0242303FB097759
:109FD00000237B61BDE8F0871020FBE71120F9E743
:109FE0002046F7E7C8320020F8B501F06043B3F12E
:109FF000005F04460F465ED10379304D242101FBFA
:10A000000351496821B100684FF40476C0F8086331
:10A01000242000FB03539E6956B1D869002839D02B
:10A0200021B123684FF40472C3F80423112030E0F7
:10A030009A61DF60DE6120684FF48871FFF7FAFDF6
:10A0400020684FF4A271FFF7F5FD2368C3F834755B
:10A05000C3F8382516BB01221A602479242202FB9A
:10A06000045252680ABBD3F81011D3F84421D3F834
:10A070002401114302D10028F5D00A46242303FB12
:10A0800004550023984218BF03209A42AB6118BFC1
:10A090000F20F8BD1F61DA610126CCE7D3F800225A
:10A0A00042F02002C3F80022D7E74FF40472C3F84D
:10A0B00004230020EDE71020EBE700BFC8320020AA
:10A0C00076DF70477ADF70477CDF70477FDF70474D
:10A0D0008FDF7047B1DF7047FDF7E4BD70470000C8
:10A0E0000388212B13B5044639D007D8112B27D06C
:10A0F000132B42D0102B0CD002B010BD522B44D0E9
:10A10000562B01D03B2BF7D1A0881321FFF7D8FFA6
:10A110000FE0224B22482349C01AC008000440F037
:10A120000300FDF751FC204BA1882048198001F065
:10A130006BFB0028E0D002B0BDE81040FDF7B2BDD7
:10A14000164B17481A49C01AC008000440F0030013
:10A15000FDF73AFC144B4FF6FF721A80CCE7002350
:10A1600080888DF8043001A98DF80530FFF7B0FF25
:10A170000028C1D0FDF796FDBEE70B4800231A4624
:10A1800085210088FFF7A2FFD3E7074800231A467E
:10A1900019460088FFF79EFFCBE700BF2CC90200DD
:10A1A00054C90200B5D00200162B0020443800200C
:10A1B000BFD0020008B503784BB9054B3B21188886
:10A1C000FFF77EFF18B1BDE80840FDF76BBD08BD85
:10A1D000162B0020F7B50378012B33D0022B31D09A
:10A1E00073BB1B4C1B4D20782844FEF7B9F823782D
:10A1F0000133DBB21D44237015F8012C0A2A05D067
:10A200000D2A03D0144A12889A4219D8012B15D965
:10A21000124D104E124F2378ADF806300DF10602A4
:10A220002B883146384601F06BFC082806D01328ED
:10A23000F1D0052802D008B1FDF734FD00232370CA
:10A2400003B0F0BD406803B0BDE8F040FDF72ABDA3
:10A25000F533002001330020142B0020162B0020A2
:10A26000182B00202DE9F04705780646A5BB1B4CAE
:10A270001B4BDFF87080DFF87090DFF870A0E41AF5
:10A28000E408240444F00104B28A3369954209D3F6
:10A29000134413F8013C0D2B1ED10A20FEF776F86B
:10A2A0001128F9E75B5D08F8013B99F800300133AC
:10A2B00089F800303369585DFEF768F8074648B101
:10A2C0001128F7D0024651462046FDF781FB38465B
:10A2D000FDF7E8FC0135D7E7BDE8F08754C9020077
:10A2E0002CC90200EC32002000330020CCD0020048
:10A2F0000D4B4A881B889A4214D10A8840F677236E
:10A300009A420FD18B88094A09480A49033B9BB2FC
:10A310001380094A801AC00800041A4640F003005E
:10A32000FDF75FBB704700BF162B0020142B0020E9
:10A3300054C90200F7D002002CC90200FDF7B2BCDC
:10A3400008B50849084801F03FF908B1FDF7AAFC33
:10A350000548F72101F04CF918B1BDE80840FDF7B8
:10A36000A1BC08BDF1A202002C38002000B56F4D41
:10A370000FCDB1B005AC0FC495E803006C4B6D4A2E
:10A3800001934FF4807384E80300CDE90323029323
:10A39000694A072301A905A8FDF78AFF08B1FDF75F
:10A3A00081FC4FF480410020FDF770F908B1FDF702
:10A3B00079FCFDF7A9F8FDF787FD08B1FDF772FC00
:10A3C000FEF750FD08B1FDF76DFC01F017FC08B178
:10A3D000FDF768FC002305A90120059301F0A0FC0E
:10A3E00008B1FDF75FFC05A801F06AFD08B1FDF7B3
:10A3F00059FC112351488DF8043001F012FF4F49E8
:10A4000082B201A8FFF760FE08B1FDF74BFC0822FD
:10A41000002105A801F0B0FE1023ADF814303C2354
:10A42000ADF816300023ADF8183005A84FF4C87306
:10A43000ADF81A30FFF746FE08B1FDF733FCFFF721
:10A440007FFF3F4B3F48059305A901F0CBF908B1C9
:10A45000FDF728FC042200210DEB020001F08CFE28
:10A46000394B3A48019301A901F0D0FA08B1FDF740
:10A4700019FCAC22002105A801F07EFE02238DF814
:10A4800014304FF4C063324AADF816300123ADF8F2
:10A49000603019928DF8903040220023CDE92723B7
:10A4A0002C482D4B2E9305A900F0A8FB08B1FDF711
:10A4B000F9FB2848012100F09EFB1C22002105A881
:10A4C00001F05AFE00234FF4A032CDE90532ADF879
:10A4D00022304FF4F0228DF82430204B07920A935B
:10A4E00003221F4B8DF8202005A80B9300F046FE99
:10A4F00008B1FDF7D7FB1B4801F0E4FD1A4B1B48E0
:10A500001B49C01AC008000440F00300FDF75CFAC4
:10A510001048032100F0E9FB08B1FDF7C3FBFDF78C
:10A5200007F90028FBD1FEF7B3FCF8E75CD1020085
:10A530005038002050390020D5A1020013D102006C
:10A54000D9A002004438002065A20200182B002088
:10A55000102B0020F8330020DDA00200B5A102007E
:10A560003DA302001FD102002CC9020054C9020001
:10A5700031D102000369C26893429CBF80681B18F6
:10A58000013B981A70472DE9F843D0E9029405463B
:10A59000A9EB04084068904520440F46144404D9B0
:10A5A00001F0C1FDEC60BDE8F8834246A4EB09046C
:10A5B00001F0B9FD6868224607EB0801F0E72DE9D4
:10A5C000F843C5680646894617464FF000083469C7
:10A5D000B3687068A54228BFE418013C621B5C1B8D
:10A5E000BC4228BF3C46944228BF144649462844F2
:10A5F000224601F098FDB3682544AB4208BF002510
:10A600003F1BA044A144F560E1D14046BDE8F8837A
:10A6100010B5114C114AA2610223C4E90433104B56
:10A62000E361A2644FF400730E4A0F492362E264AF
:10A6300000231022E01DA3626362E362A3656365E9
:10A64000E365226501F0CBFD0849204601F0C7FD16
:10A650002023A37110BD00BF503A002074D1020026
:10A66000D83A0020C83A00207DD1020081D10200F2
:10A6700070B5164B182400FB04451D4404FB003341
:10A680001646DC6A012C0ED0022C18D0E4B92846FC
:10A69000FFF770FF864204D832462846FFF773FF63
:10A6A0003446204670BD2846FFF764FF8642344694
:10A6B00028BF044622462846FFF765FFF1E72846F3
:10A6C000BDE87040FFF77BBF0024EAE7503A002066
:10A6D000FFF79EBF6DDF704779DF70477DDF704702
:10A6E00064DF70472DE9F04F85B000250E9CBDF862
:10A6F0003CB0B4F800A00191074690461E46A9461A
:10A700003A884A450DDC45B12388013BA3EB0A0397
:10A710009BB2FF2B3AD806F80A30002005B0BDE8FE
:10A72000F08F7A6852F82900039000220DF10B0196
:10A7300003A8FFF7D5FF0028F0D19DF80B20424574
:10A7400021D12288002D14BF0020022002EB080135
:10A75000014459451ADC3DB9013292B2019B228075
:10A76000B35422880132228022880DF10B01324439
:10A7700003A8FFF7B5FF0028D0D121889DF80B2052
:10A780000A442280012509F10109B9E70C20C5E737
:10A790002DE9F341089FBDF824801546CDE90078E6
:10A7A000022204461E46FFF79DFF50B93346102291
:10A7B00029462046CDE9087802B0BDE8F041FFF710
:10A7C00091BF02B0BDE8F0812DE9F04F002317885A
:10A7D000138090F82D3085B006460D46144653B3CD
:10A7E000082F01D80C2027E102A8FFF773FF0028EB
:10A7F00040F0228123880822EA54238801339BB247
:10A800001B222380EA542088013080B22080062257
:10A810000DF10901284401F086FC23889DF80820E9
:10A8200006339BB212F0FE0218BF01222380EA54C5
:10A83000238801332380B378FBB123880433BB42E0
:10A84000D0D802A8FFF748FF002840F0F580238801
:10A850000322EA54238801339BB219222380EA544D
:10A860002388BDF8082001339BB2E9182380EA54FD
:10A87000120A4A70238802332380F2789AB123881F
:10A88000D91CB942AED80221E954238801339BB2C6
:10A8900001212380E95423880B449BB22380EA548E
:10A8A00023880B4423807268AAB12388D91CB9423B
:10A8B00098D8022192F90020E954238801339BB2F1
:10A8C0000A212380E954238801339BB22380EA5470
:10A8D0002388013323803389002B40F0A180338A01
:10A8E0005BB1CDE900472B460722032106F110009A
:10A8F000FFF74EFF002840F09F80338B5BB1CDE91E
:10A9000000472B461522142106F11800FFF740FFDF
:10A91000002840F09180326A002A40F09080D6F8FA
:10A920002480B8F1000F30D0B8F804302188981C8A
:10A930008A1C0244BA423FF655AFFE283FF652AF9A
:10A9400003336B54238801339BB2FF222380EA54E4
:10A95000238801339BB22380B8F80020EA54E91819
:10A96000120A4A702088023080B22080B8F8042091
:10A970005AB1D8F8081000296BD0284401F0D3FB55
:10A980002388B8F804201344238096F82C30002B39
:10A9900040F09880307800284ED03388012B58D072
:10A9A000228802F1020CBC453FF61CAF012805D1FC
:10A9B0007378023313449F42FFF414AF023FBF1A6F
:10A9C000BFB202A905EB0C00ADF80870FFF786FED8
:10A9D00090BB3178BDF80830022900F0B980727858
:10A9E0009A4202D39F4280F0B180012940F0B280A8
:10A9F000974293B2C0F0AE80ADF808300821BDF8A0
:10AA00000830FE2B3FF6EEAE22880133AB5422888D
:10AA1000013292B22280A9542288134423800BE091
:10AA2000CDE900472B460622022106F10800FFF778
:10AA3000AFFE00283FF453AF05B0BDE8F08FB4F887
:10AA400000C00CF10603BB423FF6CCAE11880529CD
:10AA500001D80720F0E76FF4486E01EB0E039BB2BC
:10AA60004FF27D3E7345F4D95388052BF1D96FF42D
:10AA70004860181880B27045EBD94FF6FF708142DC
:10AA800001D09942E5D8052305F80C30238801331D
:10AA90009BB212212380E954238801339BB2238087
:10AAA0001188E954E818090A4170238802339BB2DF
:10AAB00023805288EA54E918120A4A702388023324
:10AAC00023802CE7B36A002BC3D04FF000084FF06F
:10AAD0000C0A4FF0160BB16A5FFA88F20AFB02F219
:10AAE00001EB0209B9F80430981CFE283FF67AAE53
:10AAF000208803332B54238801339BB2238005F82D
:10AB000003B0238801339BB223808A5AEA54E918A0
:10AB1000120A4A702088023080B22080B9F80420DE
:10AB20005AB1D9F80810002993D0284401F0FBFA53
:10AB30002388B9F804201344238096F82C2008F1C8
:10AB400001085FFA88F39A42C5D823E7092156E73E
:10AB50009F42FBD2ADF8087050E730B5C8B1F2B1F2
:10AB60000024651C8D4206DA1588A54212D8051905
:10AB70006D789D420ED1A14211D9005D48B10138D6
:10AB800080B230B10234A3B210FA84F4A14206DBE1
:10AB9000138030BD055D01352C44A4B2E1E70020EF
:10ABA000F7E713B513460022ADF806200DF10602B3
:10ABB0000446FFF7D2FF10B1BDF80630E01802B02E
:10ABC00010BD72DF704773DF704738B5012204464D
:10ABD0000D46B0F81414D0F81004FFF7E2FF00B1EE
:10ABE000057004F13C0204F5826104F15400BDE8F3
:10ABF0003840FFF7E6BF80F830107047F8B50446DC
:10AC00000F4600296DD000286BD091F87A301BB127
:10AC100091F89830002B66D14FF0000C84F802C0F8
:10AC200007F178060FCE251D0FC50FCE0FC596E88C
:10AC3000070085E8070084F830C0D7F8A4306363C4
:10AC4000D7F8A830A3634FF6FF7504F58263C4F804
:10AC50002034A4F824540722614604F2264001F06F
:10AC60008BFA23780BB984F8545094F82430002BD5
:10AC700014BFEE231F2304F15501C4F81014A4F8E7
:10AC8000143404F214423846FFF79EFD40BB94F89A
:10AC90002430002B14BFEE231F2304F23121C4F80B
:10ACA0001814A4F81C3404F21C4207F13C00FFF70E
:10ACB0008BFDA8B9A369A4F848304FF4807301252F
:10ACC000A4F8503063692064014684F83C50636402
:10ACD00004F13C0204F15400FFF773FF00B9257042
:10ACE000F8BD0E20FCE70720FAE7F8B50778044620
:10ACF0000D46002F00F00A8100F2264681700722DF
:10AD00000021304601F038FAE38813B1A378012B13
:10AD100004D0E3794BB1A378022B06D1636BABB1BE
:10AD2000012284F82D240820984704F2274304F2D6
:10AD30002D4113F8012B12B99942FAD117466B1E17
:10AD4000032B57D8DFE803F0050B0F1284F82D34DE
:10AD5000EBE7A3791BB194F8243003B95FB9E37929
:10AD60000BB1002F48D1237A002B47D1637A002BF7
:10AD70000CBF00250425636BA570002B40D0033D5C
:10AD8000012D3DD86279002A3AD094F82E24002A69
:10AD900036D184F83024012284F82F2407209847E4
:10ADA00004F13C0518220021284601F0E5F9E26A89
:10ADB0000123511E994284F83C3001D9042A00D164
:10ADC000D3B294F8242084F8513042B1A36A591EBA
:10ADD000012902D9042B18BF012384F85230A1782D
:10ADE000002384F8503004291BD8DFE801F0770DE8
:10ADF000223559000025BEE70225BCE70325BAE746
:10AE0000002384F82F34CBE7C4E91063C4F820345E
:10AE10000223012284F83C30802384F83120A4F8F6
:10AE20004830A378002B5CD1636B002B6AD10020E3
:10AE300067E00223002A84F8313014BF072303237C
:10AE400084F83C302369A4F848300023C4F8203447
:10AE5000E36826646364E4E763696364A369A4F850
:10AE6000483012B1062384F83C306379B3B194F8CA
:10AE70002E349BB994F8303483B1022384F85030D7
:10AE800004212046FFF7A1FE0028CAD1052384F83B
:10AE9000313004F58263C4F82034C2E70323F6E7B7
:10AEA000E3696364236AA4F8483012B1062384F886
:10AEB0003C30637983B194F82E346BB994F8303414
:10AEC00053B1022384F8503004212046FFF77DFE61
:10AED0000028A6D10623DAE70423D8E784F8313026
:10AEE0009FE7D4F820142A4604F15400FFF769FEC6
:10AEF00038B994F8301094F85400FFF764FE002835
:10AF000092D0F8BD94F83100984790E70820F8E710
:10AF10000388112B10B50C460AD0262B1FD0102BFE
:10AF200005D1C37B012B02D18388A1F8243410BD45
:10AF30000022838881F82E24B1F824249A42F6D185
:10AF40000B79002BF3D101212046FFF7CEFE00281C
:10AF5000EDD0A36B002BEAD0BDE810401847037A70
:10AF6000013B012BE3D8897805230131B1FBF3F3D1
:10AF700003EB8303C91AC9B2E6E775DF704776DFD2
:10AF800070477ADF70477BDF70470000034B1A88F9
:10AF900082420CBF18460020704700BFF43C0020DE
:10AFA000024B9B6903B11847704700BFD83C002093
:10AFB00073B585B22846FFF7E9FF044638B3174E4C
:10AFC000027A337B9A420CD200F10A012846FFF73D
:10AFD000D4FFF0B111281AD002B0BDE87040FFF7DD
:10AFE000DFBF00230372337C43B13B212846FFF7C8
:10AFF000C6FF30F0080301D0FFF7D2FF736933B109
:10B0000000228DF80420ADF8065001A8984702B040
:10B0100070BD237A01332372F9E700BFD83C0020CA
:10B0200037B50B46497A0F4A79B9D2E901141D7A2E
:10B030000246002D18BF21465868FCF789FF78B1F9
:10B0400003B0BDE83040FFF7ABBF00211972536970
:10B0500033B10122ADF806008DF8042001A898470D
:10B0600003B030BDD83C00204B8802889A4212D8E9
:10B0700042889A420FD380888B8840F2F31188422D
:10B0800094BF021A421A9A4205D80844984234BF23
:10B090000020012070470020704700000388122B19
:10B0A00070B5014659D004D8102B1ED0112B44D0B6
:10B0B00070BD502BFCD12F4BC288DB899A42F7D14F
:10B0C000038A022BF4D186883046FFF75FFF0546DE
:10B0D0000028EDD001F1120000F07FF938BB68685C
:10B0E000FCF764FF0028E3D009E0C37B012BDFD12C
:10B0F0004FF6FF70FFF74AFF054620B90420BDE870
:10B100007040FFF74DBF1C4A8E88068000230372F3
:10B110001368C0F80A305368C0F80E3010310A3096
:10B12000FFF7A2FF134B6872DB89002BC0D12946C1
:10B130003046BDE87040FFF773BF8088FFF726FFF9
:10B1400004460028B4D04068FCF730FF08B1FFF790
:10B1500027FF4FF6FF732380AAE786883046FFF764
:10B1600015FF05460028A3D008310A30FFF77CFF01
:10B170006872DCE7D83C0020083D0020F8B50646A0
:10B1800048B305460FCD154F3C460FC495E8070060
:10B1900084E807003068124C3C60B0B1FFF7F1FE64
:10B1A000C0B9326813682360536863600D480E4A63
:10B1B0004FF6FF7303800D4B40F8043F0021FCF76E
:10B1C000B5FE002818BF032004E02046FFF7DBFE91
:10B1D0000028EBD0F8BD0E20FCE700BFD83C0020D3
:10B1E000083D0020F43C0020B1AF0200103D0020DB
:10B1F0000AB1FDF7F3BAFDF7FABA73B50191019CF4
:10B2000006466CB100252C46294601A8FDF7F9FA3F
:10B2100018B106EB440301349D800135142DF3D1A0
:10B220003046346002B070BD2DE9F0470388848851
:10B23000103B8CB005460A2B21D8DFE803F006400E
:10B2400020202020202020654700DFF8E880D8F863
:10B250000830DB430093D8F804106846FDF7FDFA88
:10B26000009901A8FFF7C9FF0DF108090027019B0C
:10B270009F4207D3132C12D90420FCF713FD0CB006
:10B28000BDE8F08739F802AB00260136514608EBDD
:10B290008600FDF7ACFA1E2EF7D10137E7E71F480D
:10B2A0002146FDF79BFA1E482146FDF797FAEB7BF6
:10B2B000022BE4D11B482146FDF790FADFE717483F
:10B2C00021460CB0BDE8F047FDF791BA027A164866
:10B2D0003F2A4FEA1215214694BF00220122FFF7B0
:10B2E00087FF022D94BF0022012210482146FFF75C
:10B2F0007FFF012D0E4894BF0022012221460CB091
:10B30000BDE8F047FFF774BF037A002BB7D1427A4C
:10B310000548C2F3C0022146F1E700BF383D0020D6
:10B32000343D00203C3D0020483D0020443D0020AD
:10B33000403D0020303D00201328014602D802483D
:10B34000FDF75FBA00207047343D002010B5044679
:10B35000FFF7F2FF002814BF2046142010BD70B57F
:10B360000546164608460AB90E2070BD0023136034
:10B37000002DF9D02B68002BF6D0EB8813F00304D6
:10B380000ED1FFF7E3FFC0B214280BD02B79834214
:10B390000AD9EA882B6800FB023030602046E4E7D7
:10B3A0000720E2E70520E0E70420DEE7AADF704798
:10B3B000002301380B70042806D8DFE800F00306EC
:10B3C000080A0C0011230B7070472123FBE731237F
:10B3D000F9E71223F7E72223F5E7008800F00100E0
:10B3E0007047F0B58B7891B0012B0C4638BF012324
:10B3F0008DF80E3005460B88ADF80C30002116464E
:10B400006846032200F0B8FE607C6946FFF7D0FF73
:10B41000A07C0DF10101FFF7CBFFE27B237B217DB7
:10B4200043EAC203227C43EA02139DF8022000296A
:10B4300022F0190203F0190314BF02210121134362
:10B4400061F342031C22002109A88DF8023000F0AC
:10B4500093FE637B13F0300F15D002AF032200215F
:10B46000384600F089FEE07C0DF10901FFF7A0FFEE
:10B4700011238DF808309DF80A300E97012262F3EF
:10B4800042038DF80A30637B8DF824301422A37BAD
:10B490008DF82530002104A800F06EFE03AB049364
:10B4A000A388ADF81C30A368CDF814D01BB1E28896
:10B4B000ADF818200893A369002B31D001AF032207
:10B4C0000021384600F058FEA3691A88ADF82C20F8
:10B4D0005A88ADF82E205A680D97187B0A92394683
:10B4E000FFF766FFA3690DF10501587BFFF760FFC9
:10B4F000A3699A7A197A41EAC201DA7A9B7B41EA16
:10B5000002119DF80620002B01F0190122F019020A
:10B5100014BF02230123114363F342018DF8061087
:10B52000E36903B10C93334604AA09A92846FFF73F
:10B530003DFF11B0F0BD90DF7047A5DF7047B5DF6C
:10B54000704700007FB50023ADF80810ADF80A1071
:10B550006A4602A90646ADF80C30ADF80E300093ED
:10B56000ADF80430FFF7E7FF054600B3114B124C6E
:10B57000E41AE408FDF718FD240444F0010403462E
:10B580000E4932462046FCF72CFABDF80020BDF8E3
:10B59000023052EA030103D009492046FCF721FAA0
:10B5A000BDF804201AB107492046FCF711FA2846D5
:10B5B00004B070BD2CC902007CC9020088D1020011
:10B5C000D2D1020011D2020080B14FF0F713036014
:10B5D000FB230371F723C3801723038141F6FB325A
:10B5E0000023016143818281184670470E20704715
:10B5F00030B1A1F11703E02B04D80180002070477F
:10B600000E2070470720704713B5034680880C460C
:10B61000B8B91A88242A00F09C8014D8112A74D052
:10B62000232A00F0A780102A3ED0A37A4BB1E188EC
:10B630000020FFF782FF002840F0A2804FF48073C3
:10B64000638102B010BD3A2A68D0552AEDD1DB885B
:10B65000C988A072172B38BF17238B4228BF0B460F
:10B660002381FFF76CFF60B1FDF79EFC4E4B4F4905
:10B6700002464F481B1ADB081B0443F00100FCF78D
:10B68000A7F9E27A002AD0D12369002BCDD040F669
:10B690007721ADF802202289ADF80010ADF8042022
:10B6A000694620469847C0E7DB7B0A790A73012B7D
:10B6B00013D0022B14D0E18823898B4205D20020BD
:10B6C000FFF73BFF70B90123E372217B637B8B4261
:10B6D000ABD20020FFF736FFA7E70B88E380EAE74D
:10B6E0004B88FBE7112802D10123A372EDE7FDF798
:10B6F0005BFC2D4B2F4902462D481B1ADB081B040F
:10B7000043F00100FCF764F9DFE7F723CB80172350
:10B710000B8141F6FB3348818B8186E75B89CA88C0
:10B72000934228BF1346172B0A6938BF17230B8192
:10B7300062B1C97A51B140F67721ADF80010ADF889
:10B740000200ADF80430694620469047002363812B
:10B750006BE71A7A0B694A73002B3FF466AF4DF61C
:10B760007A218DF80500ADF80010ADF802008DF8D3
:10B77000042095E7197A237B994228BF1946A9E747
:10B7800011283FF45EAFFDF70FFC074B0949024655
:10B7900007481B1ADB081B0443F0010002B0BDE898
:10B7A0001040FCF715B900BF7CC9020098D2020016
:10B7B0002CC9020067D20200B0DF704766DF704715
:10B7C00010B5002104464088FFF7F8FF034608B98A
:10B7D000237210BD112801D10123F9E76368BDE888
:10B7E0001040184760B159B10378DE2B0AD00B68BE
:10B7F0004360DE2303704FF6FF73438000207047E1
:10B800000E2070470820704728B10378DE2B04D142
:10B810004180002070470E20704708207047F0B527
:10B82000054685B00C46002942D0002840D00B7850
:10B83000DE2B3DD182884B889A4204D10B7A13B11A
:10B840000846FFF7BDFF2B88112B33D0512B0FD0AB
:10B85000012B2DD12B7A012B2AD1A9886288914204
:10B8600026D12046237205B0BDE8F040FFF7A8BFFF
:10B87000AE886388B3421BD1AF79022F18D1AD7B5C
:10B880002B1F022B14D800211022684600F074FCF4
:10B89000052D18BF4FF4C0736946304618BFADF888
:10B8A00004308DF80070FFF787FF08B16368984790
:10B8B00005B0F0BD6388AA889A4204BF4FF6FF73B3
:10B8C0006380F5E7A8DF7047ADDF7047AEDF7047F4
:10B8D00062DF704770B505468AB00C46002962D019
:10B8E000002860D00388502B37D0572B72D0102BF4
:10B8F00059D181886069002601AA0196FFF72FFDC2
:10B90000082231460DEB020000F036FC02232189AB
:10B91000A888CDF80CD002AA0293FFF7D5FF002823
:10B9200041D1A369002B3ED00398FFF756FD0028B4
:10B9300039D0019B0BB101221A701822002104A8F2
:10B9400000F01AFC02238DF81030AB88ADF81830E7
:10B95000019B05940793A36923E08188606902AA8B
:10B96000FFF7FDFC1822002104A800F005FCAB88BD
:10B970002189ADF81830EB88029A05949942079214
:10B9800018D12E8A022E15D16AB105F11200FFF7E7
:10B9900024FD029B48B101221A708DF81060A36942
:10B9A0000BB104A898470AB070BD187003238DF836
:10B9B0001030F4E7A2899A42F5D1A369002BF2D0A6
:10B9C00000228DF8102005F1120208922A8AADF8A3
:10B9D0002420E6E78188606902AAFFF7C0FC0146DF
:10B9E0000028E0D1029B1B78002BDCD0A369002B40
:10B9F000D9D0182204A800F0BFFB01238DF8103025
:10BA0000AB88ADF818300594029BA3E7F0B53A4B2C
:10BA10008FB002AD04460A4603F1100C2F46186899
:10BA200059682E4603C6083363453546F7D1002CC6
:10BA30005FD0002A5DD01368A36121463846FFF726
:10BA400047FF002853D12246012512F8023B8DF80A
:10BA5000063001A92846ADF80450FFF733FF00284F
:10BA600045D10146202206A800F086FB224602238B
:10BA7000ADF8183012F80C3B8DF81A30BDF82430B0
:10BA80001E4E6088079623F44F6323F00F0343F4A0
:10BA900040632B4306A9ADF824308DF829508DF86A
:10BAA0002A50FFF79EFC10BB0146202206A800F09A
:10BAB00063FB22460323ADF8183012F8043B8DF8DF
:10BAC0001A30BDF824306088079623F4875323F09A
:10BAD0001F0343F480532B43ADF8243006A940F2F2
:10BAE00001138DF82950ADF82A30FFF77AFC0FB01A
:10BAF000F0BD0E20FBE700BFDCD20200F400010025
:10BB0000F0B50F4687B016461C46054618B3406987
:10BB100001AA1946FFF723FCD8B94FF6FF739C42E0
:10BB20001BD0019BCBB11B78CBB13388F42B18D839
:10BB30000146102202A800F01FFBAB88ADF80830C8
:10BB400002A901232046CDE904678DF80A30FFF7EA
:10BB5000BDFE07B0F0BD0E20FBE70520F9E7082089
:10BB6000F7E70720F5E710DF7047000013B504463C
:10BB700009496846FDF7BDF9019808B902B010BD42
:10BB8000D0E900212046904718B16846FDF7BBF97F
:10BB9000F2E71120F2E700BFF8D2020013B5044625
:10BBA00007496846FDF7A5F9019B0BB902B010BD26
:10BBB0002046D3E9002190476846FDF7A4F9F3E752
:10BBC00010D302000B4991F816335A09EC231341A4
:10BBD000DB0706D5084B9A683AB94FF480030B602F
:10BBE000704742F20200FCF75DB81A6842F4800226
:10BBF0001A60704700E100E0D0310020F7B5194F1E
:10BC00003C7864BB184E012520463570FFF7AEFF27
:10BC1000112821D02046FFF7C1FF144B8DF80340B7
:10BC2000186801900DF10300FCF7D8FB104901A83A
:10BC3000FFF799FF0446B0FA80F0400938709DF88C
:10BC40000300FCF7EFFB3CB90A4B34701C70FFF7A4
:10BC5000B9FF2846FFF7A2FF204603B0F0BD082435
:10BC6000FAE700BFAD3D0020AC3D0020F4D2020059
:10BC7000C17C0200AE3D0020014B1878704700BF28
:10BC8000AD3D002007B508496846FDF732F9019B34
:10BC900013B903B05DF804FBD3E900209047684670
:10BCA000FDF731F9F3E700BF04D30200FFF7EABF65
:10BCB00060DF704769DF704761DF704730B5134D53
:10BCC000ADF5017D4FF4FA740DF1020103A8ADF852
:10BCD0000240FFF7F1FF70B9294601A8FDF709F905
:10BCE000029B002BF0D003A8D3E90021904701A8C4
:10BCF000FDF709F9F4E7052805D00DF5017DBDE84C
:10BD00003040FBF7CFBF0DF5017D30BD98D5020067
:10BD1000024B1B780BB1FFF7D1BF7047AF3D00203E
:10BD200030B5054685B00C46002900F0B5805B4B68
:10BD30000B600C22002101A800F01EFA01238DF8EF
:10BD4000063022688DF80450062301A92020ADF8A2
:10BD50000830FFF7AFFF60B1FDF726F9504B5149AE
:10BD6000024651481B1ADB081B0443F00100FBF795
:10BD70002FFE0C22002101A800F0FEF901238DF80E
:10BD800005302268002301A94020ADF80630FFF7F6
:10BD900091FF60B1FDF708F9414B44490246424822
:10BDA0001B1ADB081B0443F00100FBF711FE0C22F9
:10BDB000002101A800F0E0F9F72322688DF8045073
:10BDC00001A92320ADF80630FFF774FF60B1FDF73D
:10BDD000EBF8334B3649024633481B1ADB081B0489
:10BDE00043F00100FBF7F4FD0C22002101A800F054
:10BDF000C3F9012022688DF8040001A9FFF75AFF5A
:10BE000060B1FDF7D1F8264B2A49024626481B1A95
:10BE1000DB081B0443F00100FBF7DAFD0C220021D4
:10BE200001A800F0A9F94FF4B0632268019301A9B9
:10BE3000A120FFF73FFF60B1FDF7B6F8184B1E4990
:10BE4000024619481B1ADB081B0443F00100FBF7EC
:10BE5000BFFD0C22002101A800F08EF99DF80430EE
:10BE600022686FF3000301A9A0208DF80430FFF7CA
:10BE700021FF034668B1FDF797F8094B0F490246C9
:10BE800009481B1ADB081B0443F00100FBF7A0FD67
:10BE90000023184605B030BD0E23FAE7E82A00203B
:10BEA0008CC902001CD302002CC9020062D302001C
:10BEB000AED30200F5D3020041D4020092D40200B6
:10BEC00073B505460668FFF7F3FE2B68B3420446D8
:10BED0001DD91A481A4B1B491B1ADB081B0443F0D7
:10BEE00002000190FBF770FD2B681749019832465C
:10BEF000FBF777FD4FF080532A68D3F80C311349D4
:10BF000001989B0203F100539A1AFBF761FD2CB9CB
:10BF10000F4B01221A70204602B070BD2046FDF77B
:10BF200043F8074B0B49024604481B1ADB081B0465
:10BF300043F00100FBF74CFDEDE700BF2CC9020008
:10BF40008CC90200E5D4020014D5020045D50200D8
:10BF5000AF3D00206FD502004BDF70471FB50E4C80
:10BF600001A8FFF7F9FF70B9214602A8FCF7C1FF4D
:10BF7000039B002BF4D00198D3E90021904702A83D
:10BF8000FCF7C1FFF4E7052804D004B0BDE8104079
:10BF9000FBF788BE04B010BDB0D502007F2805D8DD
:10BFA000034B185C034B5B5C1840704700207047E4
:10BFB000C8D5020048D60200A0F16103192B98BF32
:10BFC00020387047A0F14103192B98BF20307047EB
:10BFD0007F2805D8034B185C034B5B5C1840704707
:10BFE00000207047C8D5020048D60200A0F16103C6
:10BFF000192B98BF20387047A0F14103192B98BF27
:10C00000203070477F299ABF017001206FF02E0009
:10C0100070475AB10A787F2A0AD800B1026000211D
:10C0200019605960501A18BF0120704700207047EE
:10C030006FF02E00704710B504460846A2684AB15A
:10C040002368616803F1010C8C4508BF00208B4216
:10C0500008D2D054E3682BB121686268914201D2C2
:10C060002146984723680133236010BD70B54C1EEC
:10C0700009D41646C5B229463046FFF7DCFF013C1D
:10C08000B4F1FF3FF7D170BD10F0100F08D108B523
:10C0900010F4007F14BF30202020FFF7E7FF08BD19
:10C0A0007047000008B5034B5B689B681B689847A6
:10C0B00008BD00BF3C2B002008B50921FFF7F2FFA7
:10C0C00008BD00000FB410B586B008AB53F8044BA0
:10C0D0000593002303936FF000430293084B0493EE
:10C0E00000F0ECFB059A214601A800F0CBF80446CD
:10C0F00000F0E5FB204606B0BDE8104004B07047F4
:10C10000BD8F0200037853B159B10144034613F8BF
:10C11000012F12B18B42FAD10B46181A7047034611
:10C12000FBE70346F9E7844640EA010313F0030FF7
:10C1300018D18446202A0BD32DE9F007B1E8F8077F
:10C14000A0E8F807A2F12002202AF7D2BDE8F00704
:10C15000042A07D351F8043B40F8043BA2F104023F
:10C16000042AF7D2002A05D011F8013B00F8013B60
:10C17000013AF9D1604670478446002A2DD010F06C
:10C18000030F04D000F8011B013A26D0F7E7C9B22B
:10C1900041EA012141EA0141202A12D3A2F1200201
:10C1A0002DE9F0030B460C460D460E460F46884619
:10C1B0008946A0E8FA03203AFBD2BDE8F00320321A
:10C1C0000BD0042A05D340F8041B043A05D0042AF6
:10C1D000F9D200F8011B013AFBD1604670470246D4
:10C1E00010F0030F16D111F0030F13D12DE9F00059
:10C1F0004FF001374FF0803351F8044BA4EB0705A3
:10C2000025EA04051D4002D142F8044BF4E7A1F1F0
:10C210000401F0BC11F8013B02F8013B002BF9D1FD
:10C22000704700F1010110F0030F11D010F8012B3D
:10C23000002A23D010F0030F0AD010F8012B002A97
:10C240001CD010F0030F03D010F8012B002A15D0DA
:10C250002DE970004FF001324FF0803350F8044B5D
:10C26000A4EB020525EA04051D4000D1F6E7A0F184
:10C27000040070BC10F8012B002AFBD1A0EB0100D8
:10C28000704700002DE9F04F89B007460392002364
:10C2900003600C4614F8011B002900F0FC82DFF853
:10C2A00018B5EBE2002507E05E2868D145F480551B
:10C2B00001E045F040051C46234613F8010B3028E9
:10C2C000F2D81F2837D9A0F12002102A33D801A1B3
:10C2D00051F822F0B3C2020037C3020037C3020094
:10C2E00019C3020037C3020037C3020037C302007C
:10C2F0001FC3020037C3020037C3020037C3020066
:10C3000025C3020037C302002BC3020037C302005B
:10C3100037C3020031C3020045F08005CBE745F486
:10C320000045C8E745F02005C5E745F01005C2E720
:10C3300045F40075BFE72A2821D1039A111D039106
:10C34000D2F800A0BAF1000FBCBFCAF1000A45F054
:10C3500010051878A31C2AEAEA7A2E2826D0002194
:10C36000742847D07A2845D06C2800F0A8804C2843
:10C3700000F0AB80682800F0B8801C463DE0A0F1DA
:10C380003002D2B2092A88BF4FF0000AE3D84FF03A
:10C39000000A0AEB8A0A303800EB4A0A13F8010B4C
:10C3A000A0F13002D2B2092AF3D9D4E718782A28AA
:10C3B0000AD1039A111D039111685878023300299C
:10C3C000CEDB45F48075CBE70133A0F13002D2B269
:10C3D000092A88BF0021F4D8002101EB81013038FF
:10C3E00000EB410113F8010BA0F13002D2B2092A8F
:10C3F000F3D9E4E71C4614F8010B002800F057823B
:10C40000A0F12503DBB2532B62D8A0F12503532BF7
:10C410005ED8DFE813F076005D005D005D005D0032
:10C420005D005D005D005D005D005D005D005D0024
:10C430005D005D005D005D005D005D005D005D0014
:10C440005D005D005D005D005D005D005D005D0004
:10C450005D005D005D005D005D005D005D005D00F4
:10C460005D005D005D005D005D005D005D005D00E4
:10C470005D005D005D005D005D005D00EC005D0045
:10C480005D005D005D005D005D005D005D005D00C4
:10C490005D007B0021015D005D005D005D0021010C
:10C4A0005D005D005D005D0095000F01D2005D0044
:10C4B0005D00A6005D001A015D005D00EE001C46F7
:10C4C00014F8010B45F0010597E745F001051C46FE
:10C4D000B54B1E68002E00F0CE8103AB0193009196
:10C4E00053462A463946B047C5E11878682803D034
:10C4F0005C1C45F0040580E745F008059C1C587855
:10C500007BE725213846FFF796FDB4E1039B1A1D12
:10C5100003921E780AF1FF3A3A4651462846FFF741
:10C52000B3FD31463846FFF786FDA94619F0100FD6
:10C5300000F0A1813A4651462020FFF797FD9AE18D
:10C5400015F0080F06D03A68039B191D03911B686C
:10C550001A7090E1039B1A1D03921B683A681A60D7
:10C5600089E1039B1A1D0392D3F800808F4BB8F129
:10C57000000F08BF9846464625F4007915F4807FE1
:10C5800016D04046FFF7BEFD0546AAEB050A3A461F
:10C5900051464846FFF778FD002DC7D016F8011B1D
:10C5A0003846FFF748FDA8EB0603EB42F6D1BDE79E
:10C5B0004046FFF736FE0546E7E7039B1A1D039248
:10C5C0001B6815F0800F0CBF0026232645F48075EC
:10C5D00008211A46002B00F02A8105AB4FF0000815
:10C5E00005F4005CA64660468C460146D2E045F460
:10C5F000005515F0800F1BD043F2780643F2580324
:10C60000782818BF1E4615F4807F01D025F40075E8
:10C6100015F4804F32D0039B1A1D03921B6815F04E
:10C62000040F1FD01BB2002B20DA5B422D262DE019
:10C630000026E8E715F0800F0CBF0026302615F421
:10C64000807FE5D025F40075E2E715F4807F07D000
:10C6500025F400750026DBE745F480450026D7E782
:10C660000026D5E715F0080FDDD0DBB215F0200F5E
:10C6700061D115F0400F18BF202607E0039B1A1D5B
:10C6800003921B6815F0040F50D09BB215F4807F05
:10C6900014BF25F4007501215838202800F2AF801E
:10C6A00001A252F820F000BFD3C50200FFC702006C
:10C6B000FFC70200FFC70200FFC70200FFC702005A
:10C6C000FFC70200FFC70200FFC70200FFC702004A
:10C6D000FFC70200FFC7020063C70200FFC70200D6
:10C6E000FFC70200FFC70200FFC7020063C70200C6
:10C6F000FFC70200FFC70200FFC70200FFC702001A
:10C70000FFC702003BC70200D3C50200FFC70200FB
:10C71000FFC70200FFC70200FFC7020063C7020095
:10C72000FFC70200FFC70200D3C5020015F0080FC3
:10C73000ACD0DBB2AAE72B26A8E71A464FF00008D8
:10C74000002B5ED005A84FF0000803F0070330333C
:10C7500000F8013B08F10108D2081346002AF4D181
:10C760004FE018464FF00008002B4AD04FF0000869
:10C7700005F4004E4FF02C0973468E4619462FE003
:10C7800002F00F000A4C205C03F8010B08F10108CD
:10C79000120906D00029F3D002F00F00054C205CEE
:10C7A000F2E7744661462CE0B03D00201CD8020040
:10C7B000FCD702000CD80200CDCCCCCC08AB03EBEC
:10C7C000080CABFB0032D20802EB8203A0EB430360
:10C7D00030330CF80C3C08F1010809280DD910463B
:10C7E0000029EBD008F00303032BE7D108AB434447
:10C7F00003F80C9C08F10108E0E7714601E04FF0F6
:10C800000008A1EB080121EAE179AAEB090AAAEBE9
:10C81000080AFF2E0ED9AAF1020AC6F307213846EC
:10C82000FFF709FCF1B23846FFF705FC04E04FF0D2
:10C830000008E6E7002E3DD13A4651462846FFF76C
:10C8400023FC3A4649463020FFF710FCB8F1000FB0
:10C850000EDD0DF1140908F1FF38C84498F80010F6
:10C8600046463846FFF7E7FBC14508F1FF38F5D1EA
:10C8700015F0100F09D114F8011B61B125293FF4FF
:10C8800011AD3846FFF7D7FBF5E73A465146202071
:10C89000FFF7ECFBEFE7BB682BB13A6879688A4297
:10C8A0003CBF00219954386809B0BDE8F08F4FF0C3
:10C8B000FF30F9E70AF1FF3AB4E700BF704770476D
:08C8C0003992020000000000A3
:10C8C80029B202000000000011AF0200F833002076
:10C8D80009B602002C3800209DB0020000000000BC
:10C8E8001FB8020044380020D5B80200182B0020D9
:08C8F800E1A0020000000000B5
:08C90000D592020000000000C6
:10C9080011BD0200000000005DBF02000000000031
:10C91800942B00205C2C0020642C00209C2B0020F1
:04C9280018000000F3
:10C92C009ED0020000000000A4D002000000000015
:10C93C00ABD00200000000001AD102000000000081
:10C94C00AFD0020000000000F5C902000000030394
:10C95C00CCCA020000000000F0CA02000000000077
:10C96C00D4D202000000000098D0020000000000A9
:10C97C00C7D2020000000303ECD202000000030344
:10C98C008CD5020000000303A4D5020000000303B1
:10C99C0076CB0200000000008CCB020000000000EF
:10C9AC00C8C9020000000000D4C90200E82A002017
:10C9BC00000000000338FDD870470000D57302005A
:10C9CC0041740200D17302007274745F6C6F675F04
:10C9DC006261636B656E64004261636B656E647368
:10C9EC0020666C75736865640061707000000000EF
:10C9FC00843000207F000000043100201B5B313BA1
:10CA0C0033316D0025734C6F67732064726F7070D7
:10CA1C006564202825642925730D0A001B5B306D85
:10CA2C00002573003C25733E2025733A20002025F9
:10CA3C0030327800202020007C002563001B5B3105
:10CA4C003B33306D001B5B313B33326D001B5B3174
:10CA5C003B33336D001B5B313B33346D001B5B315F
:10CA6C003B33356D001B5B313B33366D001B5B314B
:10CA7C003B33376D007761726E696E6700696E6665
:10CA8C006F0064656275670028CA020049CA02001B
:10CA9C0008CA020051CA020059CA020061CA020047
:10CAAC0069CA020071CA020079CA020000000000C3
:10CABC00DDCA020081CA020089CA02008ECA0200C5
